S01B0000626C61636B5F6C696E655F666F6C6C6F7765722E737265633C
S113000012C019C018C017C016C015C014C013C040
S113001012C011C010C00FC00EC00DC00CC00BC068
S11300200AC009C008C011241FBECFE5D4E0DEBF5A
S1130030CDBF02D024C0E4CF8FEF87BB14BAE0E178
S113004072E162E083B390E023B330E0217030705A
S1130050AC014870507083FF07C02130310511F4A2
S113006078BBF0CFE8BBEECF452B61F721303105EB
S113007011F468BBE7CF232B29F718BAE3CFF89420
S1050080FFCFAC
S9030000FC
