:1000000012C019C018C017C016C015C014C013C044
:1000100012C011C010C00FC00EC00DC00CC00BC06C
:100020000AC009C008C011241FBECFE5D4E0DEBF5E
:10003000CDBF02D05EC0E4CF8EE187BB80E181BB43
:10004000F2E152E040E1ECE074E068E086B3282F92
:1000500030E02170307086B390E0807E9070803800
:10006000910529F42115310591F4F8BB22C08034A3
:10007000910529F42115310551F448BB1FC0803C7E
:10008000910529F421153105C9F458BB22C08032ED
:10009000910529F42115310549F4E8BBD7CF009724
:1000A00029F421303105D9F448BBD0CF80389105EF
:1000B00029F42130310599F458BBC8CF803291051D
:1000C00029F42130310511F678BBC0CF803C910571
:1000D00031F42130310509F0B9CF68BBB7CF803496
:1000E000910509F0B3CF2130310509F0AFCF18BA2F
:0600F000ADCFF894FFCF34
:00000001FF
