:1000000012C02CC02BC02AC029C028C027C026C0BF
:1000100025C024C023C022C021C020C01FC01EC0D4
:100020001DC01CC01BC011241FBECFE5D4E0DEBF25
:10003000CDBF10E0A0E6B0E0E8ECF0E002C0059033
:100040000D92A036B107D9F710E0A0E6B0E001C0EC
:100050001D92A036B107E1F702D034C0D1CF8FEFA7
:1000600087BB14BAA1E0F9E0E8E083B390E023B3E2
:1000700030E02072307050E0BC016071707084FF1D
:1000800051E090E02115310509F491E0552311F07C
:10009000911118BA40E06031710509F441E080E047
:1000A0002032310509F481E0442311F08111F8BBBD
:1000B000552311F08111A8BB4423B9F29923A9F269
:0800C000E8BBD3CFF894FFCF99
:00000001FF
