:1000000012C019C018C017C016C015C014C013C044
:1000100012C011C010C00FC00EC00DC00CC00BC06C
:100020000AC009C008C011241FBECFE5D4E0DEBF5E
:10003000CDBF02D04AC0E4CF8FEF87BB72E029E189
:1000400030E064E058E040E178BB80E29EE4F901F2
:100050003197F1F70197D9F718BA80E197E2F901E2
:100060003197F1F70197D9F768BB80E29EE4F90177
:100070003197F1F70197D9F718BA80E197E2F901C2
:100080003197F1F70197D9F758BB80E29EE4F90167
:100090003197F1F70197D9F718BA80E197E2F901A2
:1000A0003197F1F70197D9F748BB80E29EE4F90157
:1000B0003197F1F70197D9F718BA80E197E2F90182
:0E00C0003197F1F70197D9F7BFCFF894FFCF32
:00000001FF
