:1000000012C02CC02BC02AC029C028C027C026C0BF
:1000100025C024C023C022C021C020C01FC01EC0D4
:100020001DC01CC01BC011241FBECFE5D4E0DEBF25
:10003000CDBF10E0A0E6B0E0E2E3F1E002C0059041
:100040000D92A036B107D9F710E0A0E6B0E001C0EC
:100050001D92A036B107E1F702D069C0D1CF0F934E
:100060001F9314BA8EE187BBACE068EC70E0B0E19E
:1000700002E012E183B390E023B330E028703070E7
:10008000AC014170507080FD17C021153105A1F4FD
:10009000A8BB80E49FE1FB013197F1F70197D9F705
:1000A000B8BB80E49FE1FB013197F1F70197D9F7E5
:1000B00041E050E028E030E041305105A1F4211545
:1000C000310559F5A8BB80E49FE1FB013197F1F7B9
:1000D0000197D9F7B8BB80E49FE1FB013197F1F7B5
:1000E0000197D9F716C041155105B9F428303105EB
:1000F000A1F4A8BB80E49FE1FB013197F1F70197E0
:10010000D9F708BB80E49FE1FB013197F1F7019734
:10011000D9F741E050E028E030E04130510509F0E6
:10012000A9CF2830310509F0A5CF18BBA3CFF8948B
:02013000FFCFFF
:00000001FF
