:1000000012C02CC02BC02AC029C028C027C026C0BF
:1000100025C024C023C022C021C020C01FC01EC0D4
:100020001DC01CC01BC011241FBECFE5D4E0DEBF25
:10003000CDBF10E0A0E6B0E0EEECF0E002C005902D
:100040000D92A036B107D9F710E0A0E6B0E001C0EC
:100050001D92A036B107E1F702D037C0D1CF8FEFA4
:1000600087BB11BA72E16CE050E142E086B3282F01
:1000700030E02170307080B390E0807E90708038E6
:10008000910529F421153105C1F478BBEFCF8034F7
:10009000910529F42115310549F448BBE7CF803C8F
:1000A000910521F4232B11F758BBE0CF8032910545
:1000B00021F4232BD9F668BBD9CF80349105B1F652
:0E00C0002130310599F618BAD1CFF894FFCF50
:00000001FF
