:1000000012C02CC02BC02AC029C028C027C026C0BF
:1000100025C024C023C022C021C020C01FC01EC0D4
:100020001DC01CC01BC011241FBECFE5D4E0DEBF25
:10003000CDBF10E0A0E6B0E0E4ECF0E002C0059037
:100040000D92A036B107D9F710E0A0E6B0E001C0EC
:100050001D92A036B107E1F702D032C0D1CF14BA59
:100060008EE187BBE2E070E162E183B390E023B30D
:1000700030E028703070AC014170507080FD05C0D8
:100080002115310511F418BAA9014130510539F48F
:100090002115310569F478BB40E050E003C04115FB
:1000A000510531F42830310519F4E8BB20E030E087
:1000B00041305105D1F628303105B9F668BBD5CFAE
:0400C000F894FFCFE2
:00000001FF
