:1000000012C02CC02BC02AC029C028C027C026C0BF
:1000100025C024C023C022C021C020C01FC01EC0D4
:100020001DC01CC01BC011241FBECFE5D4E0DEBF25
:10003000CDBF10E0A0E6B0E0E4E2F1E002C0059040
:100040000D92A036B107D9F710E0A0E6B0E001C0EC
:100050001D92A036B107E1F702D062C0D1CF0F9355
:100060001F9314BA8EE187BBACE068EC70E0B0E19E
:1000700002E112E083B390E023B330E028703070E7
:10008000AC014170507080FF17C028303105A1F4D9
:10009000A8BB88E59BE1FB013197F1F70197D9F700
:1000A000B8BB80E49FE1FB013197F1F70197D9F7E5
:1000B00040E050E020E030E041305105A9F4232B2E
:1000C000C9F6A8BB88E59BE1FB013197F1F70197E1
:1000D000D9F7B8BB80E49FE1FB013197F1F70197B5
:1000E000D9F720E030E003C0452B09F0C3CF28301A
:1000F000310589F4A8BB88E59BE1FB013197F1F755
:100100000197D9F718BB80E49FE1FB013197F1F724
:100110000197D9F703C0232B09F0ACCF08BBAACFB6
:04012000F894FFCF81
:00000001FF
