:1000000012C019C018C017C016C015C014C013C044
:1000100012C011C010C00FC00EC00DC00CC00BC06C
:100020000AC009C008C011241FBECFE5D4E0DEBF5E
:10003000CDBF02D06BC0E4CF8EE187BBA0E12CE244
:1000400031E078E16CE056E042E0A8BB80E197E265
:10005000F9013197F1F70197D9F778BB80E197E281
:10006000F9013197F1F70197D9F768BB80E197E281
:10007000F9013197F1F70197D9F758BB80E197E281
:10008000F9013197F1F70197D9F748BB80E197E281
:10009000F9013197F1F70197D9F718BA80E197E2A2
:1000A000F9013197F1F70197D9F748BB80E197E261
:1000B000F9013197F1F70197D9F758BB80E197E241
:1000C000F9013197F1F70197D9F768BB80E197E221
:1000D000F9013197F1F70197D9F778BB80E197E201
:1000E000F9013197F1F70197D9F7A8BB80E197E2C1
:1000F000F9013197F1F70197D9F718BA80E197E242
:10010000F9013197F1F70197D9F79FCFF894FFCF15
:00000001FF
