:1000000012C019C018C017C016C015C014C013C044
:1000100012C011C010C00FC00EC00DC00CC00BC06C
:100020000AC009C008C011241FBECFE5D4E0DEBF5E
:10003000CDBF02D044C0E4CF8FEF87BBB0E129E150
:1000400030E0A8E17CE16EE056E042E0B8BB80E43D
:100050009CE9F9013197F1F70197D9F7A8BB80E442
:100060009CE9F9013197F1F70197D9F778BB80E462
:100070009CE9F9013197F1F70197D9F768BB80E462
:100080009CE9F9013197F1F70197D9F758BB80E462
:100090009CE9F9013197F1F70197D9F748BB80E462
:1000A0009CE9F9013197F1F70197D9F718BA80E483
:1000B0009CE9F9013197F1F70197D9F7C7CFF89487
:0200C000FFCF70
:00000001FF
