:1000000012C019C018C017C016C015C014C013C044
:1000100012C011C010C00FC00EC00DC00CC00BC06C
:100020000AC009C008C011241FBECFE5D4E0DEBF5E
:10003000CDBF02D06CC0E4CF0F931F938FEF87BB6F
:1000400014BA6CE271E0ACE0B0E102E112E083B31B
:1000500090E023B330E021703070AC0148705070F4
:1000600083FF05C02130310501F508BBF0CF452BDA
:1000700071F7232B09F032C018BA80E197E2FB0137
:100080003197F1F70197D9F7A8BB80E197E2FB011F
:100090003197F1F70197D9F7B8BB80E197E2FB01FF
:1000A0003197F1F70197D9F7D2CF18BA80E197E2EB
:1000B000FB013197F1F70197D9F7A8BB80E197E2EF
:1000C000FB013197F1F70197D9F7B8BB80E197E2CF
:1000D000FB013197F1F70197D9F7B9CF18BA80E151
:1000E00097E2FB013197F1F70197D9F7A8BB80E1BF
:1000F00097E2FB013197F1F70197D9F718BB80E13F
:1001000097E2FB013197F1F70197D9F7A0CFF89467
:02011000FFCF1F
:00000001FF
