:1000000012C02CC02BC02AC029C028C027C026C0BF
:1000100025C024C023C022C021C020C01FC01EC0D4
:100020001DC01CC01BC011241FBECFE5D4E0DEBF25
:10003000CDBF10E0A0E6B0E0E8EBF0E002C0059034
:100040000D92A036B107D9F710E0A0E6B0E001C0EC
:100050001D92A036B107E1F702D02CC0D1CF14BA5F
:100060008EE187BBA0E1F2E1E2E083B390E023B34D
:1000700030E02870307040E0BC016170707080FD2D
:1000800041E050E02830310509F451E0442311F0FB
:10009000511118BA80E0232B09F481E0442311F0B8
:1000A0008111A8BB672B09F75111E8BB8823E9F23E
:0800B000F8BBDBCFF894FFCF91
:00000001FF
