:1000000012C019C018C017C016C015C014C013C044
:1000100012C011C010C00FC00EC00DC00CC00BC06C
:100020000AC009C008C011241FBECFE5D4E0DEBF5E
:10003000CDBF02D026C0E4CF8FEF87BB14BA81BBFF
:1000400060E1E2E172E083B390E023B330E021703D
:100050003070AC014870507083FF07C0213031050B
:1000600011F4E8BBF0CF68BB06C0452B61F7213027
:10007000310519F478BB62BBE6CF232B21F718BA00
:06008000E2CFF894FFCF6F
:00000001FF
