:1000000012C02CC02BC02AC029C028C027C026C0BF
:1000100025C024C023C022C021C020C01FC01EC0D4
:100020001DC01CC01BC011241FBECFE5D4E0DEBF25
:10003000CDBF10E0A0E6B0E0E6EEF2E002C0059031
:100040000D92A036B107D9F710E0A0E6B0E001C0EC
:100050001D92A036B107E1F707D043C1D1CF80E0B0
:1000600090E00197F1F708955F926F927F928F92DF
:100070009F92AF92BF92CF92DF92EF92FF920F9337
:100080001F93CF93DF938FEF87BB8FEC81BB14BAA5
:100090008FE082BBA1E0EA2EF12CA0E0B0E0662464
:1000A0007724AA24BB24F9E09F2EE8E08E2E552465
:1000B0005394CC24DD2483B3E82FF0E0E071F0709A
:1000C00083B3682F70E06072707080B3C82FD0E087
:1000D000C071D07080B3082F10E0007210706114EE
:1000E000710449F781E0E816F10409F08CC080E062
:1000F000E031F10509F481E090E06032710509F426
:1001000091E0882311F0911198BA20E0309719F40A
:1001100021E0911158BA90E06115710509F491E060
:10012000882311F0911188BA292330E040E050E093
:10013000109711F441E050E024233523232BA1F044
:1001400018BA92BAC5010197F1F771E0C72ED12C08
:10015000EE24FF24CFE7D0E00FE710E0EFE7F0E078
:100160006FE770E0A1E0B0E090E0309709F491E033
:1001700020E06115710509F421E09223292F30E078
:1001800040E050E0A230B10511F441E050E02423FA
:100190003523232BA1F018BA92BAC5010197F1F7C4
:1001A00061E0C62ED12CEE24FF24CFE7D0E00FE78C
:1001B00010E0EFE7F0E06FE770E0A3E0B0E090E080
:1001C000EF2B09F491E020E0672B09F421E0922362
:1001D000292F30E040E050E0A430B10511F441E0B7
:1001E00050E024233523232B71F018BA92BAC501AD
:1001F0000197F1F7EE24FF24CFE7D0E00FE710E0FE
:10020000A5E0B0E005C081E0C816D10409F053CFE5
:1002100080E0C031D10509F481E090E000321105A1
:1002200009F491E0882311F0911192BA20E0CD2BCE
:1002300019F421E0911152BA90E0012B09F491E0F8
:10024000882311F0911182BA292330E080E090E0F8
:10025000A130B10511F481E090E082239323892B32
:1002600021F451E0C52ED12C0CC012BA98BAC501A8
:100270000197F1F7CC24DD2441E0E42EF12CA2E03B
:10028000B0E080E090E0A330B10511F481E090E0AF
:1002900082239323892B61F012BA98BAC501019782
:1002A000F1F7CC24DD2491E0E92EF12CA4E0B0E0BC
:1002B00080E090E0A530B10511F481E090E0822368
:1002C0009323892B09F4F7CE12BA18BAC501019706
:1002D000F1F781E0682E712CA6E0B0E0EE24FF2457
:0602E000E8CEF894FFCF08
:00000001FF
